:100000000C945D000C9485000C9485000C94850084
:100010000C9485000C9485000C9485000C9485004C
:100020000C9485000C9485000C9485000C9485003C
:100030000C9485000C9485000C9485000C9485002C
:100040000C948E020C9485000C945C020C94360285
:100050000C9485000C9485000C9485000C9485000C
:100060000C9485000C94850000000008000201003B
:100070000003040700000000000000000000000072
:10008000250028002B0000000000240027002A0083
:10009000040404040404040402020202020203032E
:1000A0000303030301020408102040800102040836
:1000B0001020010204081020AF0411241FBECFEF4E
:1000C000D8E0DEBFCDBF11E0A0E0B1E0EAE1FCE0A6
:1000D00002C005900D92A231B107D9F721E0A2E14B
:1000E000B1E001C01D92AC3CB207E1F710E0CDE5F4
:1000F000D0E004C02197FE010E940506CC35D1074F
:10010000C9F70E94D8020C940B060C94000090E0F2
:10011000FC01EC55FF4F249180579F4FFC018491C7
:10012000882399F090E0880F991FFC01EA57FF4F50
:10013000A591B491FC01E458FF4F859194918FB73C
:10014000F894EC91E22BEC938FBF0895AF92BF929D
:10015000CF92DF92EF92FF920F931F93CF93DF9393
:100160006C017B018B01040F151FEB015E01AE18C2
:10017000BF08C017D10759F06991D601ED91FC91E4
:100180000190F081E02DC6010995892B79F7C50111
:10019000DF91CF911F910F91FF90EF90DF90CF9063
:1001A000BF90AF900895FC01538D448D252F30E012
:1001B000842F90E0821B930B541710F0CF96089574
:1001C00001970895FC01918D828D981761F0A28DA1
:1001D000AE0FBF2FB11D5D968C91928D9F5F9F7367
:1001E000928F90E008958FEF9FEF0895FC01918D1D
:1001F000828D981731F0828DE80FF11D858D90E08A
:1002000008958FEF9FEF0895FC01918D228D892F26
:1002100090E0805C9F4F821B91098F73992708950E
:100220008BE191E00E94040121E0892B09F420E098
:10023000822F089580E090E0892B29F00E94100120
:1002400081110C9400000895FC01A48DA80FB92F12
:10025000B11DA35ABF4F2C91848D90E001968F73EE
:100260009927848FA689B7892C93A089B1898C910D
:10027000837080648C93938D848D981306C002885C
:10028000F389E02D80818F7D80830895EF92FF9226
:100290000F931F93CF93DF93EC0181E0888F9B8DA9
:1002A0008C8D98131AC0E889F989808185FF15C063
:1002B0009FB7F894EE89FF896083E889F989808186
:1002C0008370806480839FBF81E090E0DF91CF9155
:1002D0001F910F91FF90EF900895F62E0B8D10E077
:1002E0000F5F1F4F0F731127E02E8C8D8E110CC0E6
:1002F0000FB607FCFACFE889F989808185FFF5CF31
:10030000CE010E942401F1CFEB8DEC0FFD2FF11DEA
:10031000E35AFF4FF0829FB7F8940B8FEA89FB896D
:1003200080818062CFCFCF93DF93EC01888D8823CB
:10033000B9F0AA89BB89E889F9898C9185FD03C048
:10034000808186FD0DC00FB607FCF7CF8C9185FF2D
:10035000F2CF808185FFEDCFCE010E942401E9CF4D
:10036000DF91CF91089590E0FC01E859FF4F24916F
:10037000FC01EC55FF4F3491FC01E057FF4FE49135
:10038000EE23C9F0222339F0233001F1A8F4213003
:1003900019F1223029F1F0E0EE0FFF1FE458FF4F72
:1003A000A591B4918FB7F894EC91611126C0309566
:1003B0003E233C938FBF08952730A9F02830C9F021
:1003C000243049F7809180008F7D03C080918000A8
:1003D0008F7780938000DFCF84B58F7784BDDBCFAC
:1003E00084B58F7DFBCF8091B0008F778093B00074
:1003F000D2CF8091B0008F7DF9CF3E2BDACF8E50D7
:10040000806480937C0080917A00806480937A007D
:1004100080917A0086FDFCCF8091780090917900E0
:1004200008953FB7F8948091170190911801A09119
:100430001901B0911A0126B5A89B05C02F3F19F0EC
:100440000196A11DB11D3FBFBA2FA92F982F882754
:10045000BC01CD01620F711D811D911D42E0660F2F
:10046000771F881F991F4A95D1F708951F920F9201
:100470000FB60F9211242F933F934F935F936F9377
:100480007F938F939F93AF93BF93EF93FF938BE1F2
:1004900091E00E942401FF91EF91BF91AF919F9154
:1004A0008F917F916F915F914F913F912F910F901D
:1004B0000FBE0F901F9018951F920F920FB60F92BC
:1004C00011242F938F939F93EF93FF93E0912B0130
:1004D000F0912C018081E0913101F091320182FD97
:1004E0001BC09081809134018F5F8F732091350103
:1004F000821741F0E0913401F0E0E55EFE4F958F08
:1005000080933401FF91EF919F918F912F910F90E4
:100510000FBE0F901F9018958081F4CF1F920F92FD
:100520000FB60F9211242F933F938F939F93AF9306
:10053000BF938091130190911401A0911501B09186
:1005400016013091120123E0230F2D3758F5019643
:10055000A11DB11D209312018093130190931401EA
:10056000A0931501B0931601809117019091180185
:10057000A0911901B0911A010196A11DB11D80939E
:10058000170190931801A0931901B0931A01BF911C
:10059000AF919F918F913F912F910F900FBE0F9030
:1005A0001F90189526E8230F0296A11DB11DD2CFEA
:1005B000CF93DF93CDB7DEB728970FB6F894DEBFA1
:1005C0000FBECDBF789484B5826084BD84B5816050
:1005D00084BD85B5826085BD85B5816085BD80910E
:1005E0006E00816080936E00109281008091810086
:1005F000826080938100809181008160809381007E
:10060000809180008160809380008091B10084603F
:100610008093B1008091B00081608093B0008091A0
:100620007A00846080937A0080917A00826080935F
:100630007A0080917A00816080937A0080917A00BC
:10064000806880937A001092C100E0912B01F091B4
:100650002C0182E08083E0912701F0912801108233
:10066000E0912901F0912A018FEC808310923301EF
:10067000E0912F01F091300186E08083E0912D011F
:10068000F0912E01808180618083E0912D01F091B5
:100690002E01808188608083E0912D01F0912E01F0
:1006A000808180688083E0912D01F0912E0180810E
:1006B0008F7D808383E00E94870082E00E94870014
:1006C00084E00E9487008EE00E94FF01BC01990F28
:1006D000880B990B0E94E3042B013C014092C80156
:1006E0005092C9016092CA017092CB018FE00E94C2
:1006F000FF01BC01990F880B990B0E94E3046B0169
:100700007C01C092C401D092C501E092C601F09272
:10071000C70180E10E94FF015C012AE038E240EA63
:100720005BE3C301B2010E9447052B013C014092EB
:10073000C0015092C1016092C2017092C3012AE0CF
:1007400038E240EA5BE3C701B6010E9447056B014E
:100750007C01C092BC01D092BD01E092BE01F0923A
:10076000BF01B501BB0C880B990B0E94E3042AE082
:1007700038E240EA5BE30E9447054B015C0180924E
:10078000B8019092B901A092BA01B092BB010E9447
:1007900011026D837E838F8398872AEF30E040E0DB
:1007A00050E029833A834B835C830E9411022D81A0
:1007B0003E814F815885621B730B840B950B683EFD
:1007C00073408105910588F389819A81AB81BC8151
:1007D0000197A109B10989839A83AB83BC832D81D9
:1007E0003E814F81588528513C4F4F4F5F4F2D839D
:1007F0003E834F835887892B8A2B8B2BB1F62FE8AA
:1008000032EC45ED5FE3C301B2010E94DC0418162F
:100810000CF455C02CEE31E548E150E4C501B401BB
:100820000E94DC0487FF1EC028EB3EE145E85EE342
:10083000C701B6010E94DC0487FF0AC060E082E0C5
:100840000E94B30161E083E00E94B30160E027C031
:1008500028EB3EE145E85EE3C701B6010E94420590
:1008600087FFECCF2CEE31E548E150E4C501B4013F
:100870000E94420587FD23C028EB3EE145E85EE388
:10088000C701B6010E94420587FD19C060E082E001
:100890000E94B30160E083E00E94B30161E084E064
:1008A0000E94B30140E050E0452B09F40CCF0E94B8
:1008B0001001882309F407CF0E94000004CF2FE81D
:1008C00032EC45ED5FE3C301B2010E944205181608
:1008D0000CF043C02CEE31E548E150E4C501B40111
:1008E0000E94DC0487FF10C028EB3EE145E85EE390
:1008F000C701B6010E94DC0487FF06C061E082E008
:100900000E94B30160E09FCF2CEE31E548E150E456
:10091000C501B4010E94420587FD15C028EB3EE1E8
:1009200045E85EE3C701B6010E94DC0487FDE6CF1F
:1009300028EB3EE145E85EE3C701B6010E944205AF
:1009400087FFA4CF0AC02CEE31E548E150E4C50191
:10095000B4010E94420587FFEBCF60E0D0CFEBE10E
:10096000F1E01382128288EE93E0A0E0B0E084838D
:100970009583A683B78384E091E09183808385EC9F
:1009800090E09587848784EC90E09787868780EC59
:1009900090E0918B808B81EC90E0938B828B82EC4A
:1009A00090E0958B848B86EC90E0978B868B118EF4
:1009B000128E138E148E08950E941E0508F481E095
:1009C0000895E89409C097FB3EF490958095709542
:1009D00061957F4F8F4F9F4F9923A9F0F92F96E98B
:1009E000BB279395F695879577956795B795F11100
:1009F000F8CFFAF4BB0F11F460FF1BC06F5F7F4F9D
:100A00008F4F9F4F16C0882311F096E911C07723AE
:100A100021F09EE8872F762F05C0662371F096E8B7
:100A2000862F70E060E02AF09A95660F771F881F86
:100A3000DAF7880F9695879597F90895990F00082A
:100A4000550FAA0BE0E8FEEF16161706E807F907A0
:100A5000C0F012161306E407F50798F0621B730B3B
:100A6000840B950B39F40A2661F0232B242B252BBC
:100A700021F408950A2609F4A140A6958FEF811D5F
:100A8000811D08950E941E0508F48FEF08950E94AD
:100A90005A050C94CB050E94BD0538F00E94C40590
:100AA00020F0952311F00C94B4050C94BA05112490
:100AB0000C94FF050E94DC0570F3959FC1F3950F20
:100AC00050E0551F629FF001729FBB27F00DB11DD2
:100AD000639FAA27F00DB11DAA1F649F6627B00D62
:100AE000A11D661F829F2227B00DA11D621F739F4B
:100AF000B00DA11D621F839FA00D611D221F749F59
:100B00003327A00D611D231F849F600D211D822F9F
:100B1000762F6A2F11249F5750409AF0F1F08823C6
:100B20004AF0EE0FFF1FBB1F661F771F881F9150F3
:100B30005040A9F79E3F510580F00C94B4050C94E9
:100B4000FF055F3FE4F3983ED4F38695779567956C
:100B5000B795F795E7959F5FC1F7FE2B880F911D1D
:100B60009695879597F9089597F99F6780E870E0C3
:100B700060E008959FEF80EC089500240A94161613
:100B8000170618060906089500240A94121613067B
:100B9000140605060895092E0394000C11F4882309
:100BA00052F0BB0F40F4BF2B11F460FF04C06F5F25
:100BB0007F4F8F4F9F4F089557FD9058440F551FFB
:100BC00059F05F3F71F04795880F97FB991F61F0CF
:100BD0009F3F79F087950895121613061406551F46
:100BE000F2CF4695F1DF08C0161617061806991FB2
:100BF000F1CF86957105610508940895E894BB27A7
:100C000066277727CB0197F90895EE0FFF1F059010
:0A0C1000F491E02D0994F894FFCF51
:100C1A00000000004601A600D30093010401E2008F
:020C2A00F600D2
:00000001FF
